:100000000C949B030C94BA030C94BA030C94BA039B
:100010000C94BA030C94BA030C94BA030C94BA036C
:100020000C94BA030C94BA030C94BA030C94BA035C
:100030000C94BA030C94BA030C94BA030C94BA034C
:100040000C94BA030C94BA030C94BA030C94BA033C
:100050000C94BA030C94BA030C94BA030C94BA032C
:100060000C94BA030C94BA030C94BA030C94BA031C
:100070000C94BA030C94BA030C94BA030C94BA030C
:100080000C94BA030C94BA030C94BA03FF701705CE
:100090000802000000000000001000000000000F37
:1000A000000100060802000000000000001000002F
:1000B0000000000F000100FFFF701705080200009C
:1000C00000000000002000000000003200010006D7
:1000D00008020000000000000020000000000032C4
:1000E000000100FFFF70170508020000000000007B
:1000F00000200000000000FF0001000608020000D0
:100100000000000000200000000000FF000100FFD0
:10011000FF70170508040000000000000020000028
:10012000000000FF000100000000000000200000AF
:1001300000FF0000000100060804000000000000AD
:1001400000200000000000FF00010000000000008F
:10015000002000FF0000007D000100FFFF70170479
:10016000080400000003000000080000000000FF79
:1001700000010000000000000020000000FF00005F
:10018000000100050804000000000000002000003D
:10019000000000FF0001000000000000002000003F
:1001A00000FF00000001000608040000000000003D
:1001B00000200000000000FF00010000000000001F
:1001C000002000FF0000007D00010007080400037C
:1001D0000000000300080000000000FF0001000014
:1001E00000000000002000FF0000007D000100FF73
:1001F000FF7017040804000000030000000800005E
:10020000000000FF000100000000000000200000CE
:1002100000FF0000000100050804000000000000CD
:1002200000080000000000FF0001000000000000C6
:100230000008000000FF00000001000608040000A4
:100240000000000000080000000000FF00010000A6
:1002500000000000000800FF0000007D0001000712
:10026000080400030000000300080000000000FF75
:100270000001000000000000002000FF0000007DE1
:10028000000100FFFF7017040804000000030000D5
:1002900000030000000000FF00010000000000005B
:1002A0000003000000FF000000010005080400003A
:1002B0000000000000030000000000FF000100003B
:1002C000000000000003000000FF00000001000625
:1002D000080400000000000000030000000000FF10
:1002E0000001000000000000000300FF0000007D8E
:1002F00000010007080400030000000300030000E1
:10030000000000FF0001000000000000000300FFEB
:100310000000007D000100FFFF70170408020000CC
:10032000007D0000000900000000007D00030005C2
:1003300008020000007D0000000900000000007DB0
:1003400000030006080200FF0000007D0009000015
:100350000000007D00030007080200FF0000007D90
:10036000000900000000007D000300FFFF6F170080
:10037000080800FF00000000000200FF00FF00006E
:100380000001000000FF00000001000000FF00FF6E
:1003900000010000000000FF000100FF000000FF5E
:1003A0000001000000000000002600000000000026
:1003B00000010001080800FF00000000000200FF2B
:1003C00000FF00000001000000FF0000000100002D
:1003D00000FF00FF00010000000000FF000100FF1F
:1003E000000000FF000100000000000000260000E7
:1003F0000000000000010002080800FF00000000EB
:10040000000200FF00FF00000001000000FF0000EC
:100410000001000000FF00FF00010000000000FFDD
:10042000000100FF000000FF0001000000000000CC
:10043000002600000000000000010003080800FF83
:1004400000000000000200FF00FF000000010000AB
:1004500000FF00000001000000FF00FF000100009D
:10046000000000FF000100FF000000FF000100008D
:100470000000000000260000000000000001000451
:10048000080800FF00000000000200FF00FF00005D
:100490000001000000FF00000001000000FF00FF5D
:1004A00000010000000000FF000100FF000000FF4D
:1004B0000001000000000000002600000000000015
:1004C00000010005080800FF00000000000200FF16
:1004D00000FF00000001000000FF0000000100001C
:1004E00000FF00FF00010000000000FF000100FF0E
:1004F000000000FF000100000000000000260000D6
:100500000000000000010006080800FF00000000D5
:10051000000200FF00FF00000001000000FF0000DB
:100520000001000000FF00FF00010000000000FFCC
:10053000000100FF000000FF0001000000000000BB
:10054000002600000000000000010007080800FF6E
:1005500000000000000200FF00FF0000000100009A
:1005600000FF00000001000000FF00FF000100008C
:10057000000000FF000100FF000000FF000100007C
:10058000000000000026000000000000000100083C
:10059000080800FF00000000000200FF00FF00004C
:1005A0000001000000FF00000001000000FF00FF4C
:1005B00000010000000000FF000100FF000000FF3C
:1005C0000001000000000000002600000000000004
:1005D00000010009080800FF00000000000200FF01
:1005E00000FF00000001000000FF0000000100000B
:1005F00000FF00FF00010000000000FF000100FFFD
:10060000000000FF000100000000000000260000C4
:10061000000000000001000A080800FF00000000C0
:10062000000200FF00FF00000001000000FF0000CA
:100630000001000000FF00FF00010000000000FFBB
:10064000000100FF000000FF0001000000000000AA
:1006500000260000000000000001000B080800FF59
:1006600000000000000200FF00FF00000001000089
:1006700000FF00000001000000FF00FF000100007B
:10068000000000FF000100FF000000FF000100006B
:10069000000000000026000000000000000100FF34
:1006A000FF381805037D000000000001001E000651
:1006B000037D000000000001001E00FFFF0A00058E
:1006C000037D000000000001000A0006037D000019
:1006D00000000001000A00FFFF09000505FF0000FF
:1006E000000000FF007D000000030001000A00067A
:1006F00005FF0000000000FF007D00000003000176
:10070000000A00FFFF09000505FF0000000000FFD0
:10071000007D0000000300010005000605FF000049
:10072000000000FF007D000000030001000500FF45
:10073000FF0A00FF000011241FBECFEFD0E1DEBF93
:10074000CDBF12E0A0E0B1E0E6EAF1E300E00BBFCC
:1007500002C007900D92A031B107D9F71EE0A0E1C9
:10076000B2E001C01D92A53FB107E1F70E940C0461
:100770000C94D1180C940000EF92FF920F931F93EA
:10078000CF93DF93EC0100E010E0EE24FF240CC0D7
:1007900080911002909111020A974CF50F5F1F4F44
:1007A00027960C30110579F08E81813089F36C81A8
:1007B0007D81E881F981C80109950F5F1F4F279658
:1007C0000C30110589F781E0E816F104D1F0809131
:1007D00010029091110201969093110280931002E1
:1007E000DF91CF911F910F91FF90EF9008956C8151
:1007F0007D81E881F981C801099581E0E82EF12C1D
:10080000CDCF1092110210921002DF91CF911F9163
:100810000F91FF90EF9008952F923F924F925F9229
:100820006F927F928F929F92AF92BF92CF92DF9200
:10083000EF92FF920F931F93DF93CF93CDB7DEB765
:10084000C056D0400FB6F894DEBF0FBECDBF109299
:1008500064008FEF809365008ABB1BBA8BB31BBA11
:100860008EB588608EBD80E48FBD80EA9FE09BBD21
:100870008ABD8EB582608EBD0E94BF114DE0642E90
:10088000712C6C0E7D1EF30189E495E09E012F59B9
:100890003F4F41E06EEA75E071836083938382830A
:1008A000158214824B8B3796E217F30799F70E9453
:1008B0009511FC01EE24FF2488248A94982C2E01A3
:1008C0000894411C511CAA24BB243CE0232E332451
:1008D000339402811381D201E22D1D92EA95E9F74A
:1008E000D8018C9190E0F201E80FF91F3082FC01F1
:1008F000EE0FFF1FEE0FFF1FEE0FFF1FE81BF90BA0
:10090000E40DF51D12962D913C91139735872487A0
:1009100016966D917C911797718B608B18962C9120
:100920001897228B1496ED91FC9115970995F80173
:10093000018512850115110599F6F201D301808117
:10094000882361F46EEA75E011967C936E93159698
:100950001C921E92149716963C92169731961796F3
:10096000E615F70561F700E010E0CC24DD24E11482
:10097000F10419F488248A94982CC3010E94BC03C2
:100980000E94CB120E9418120F5F1F4F0A301105F0
:1009900074F38091630081FD1AC0AB2809F44DC047
:1009A0008091630080FD21C0E0FE59C0C1FE29C0D6
:1009B000B1E08B169104B1F122E0A22EB12CAE2051
:1009C000BF2000E010E0E114F104B9F6D3CFAB286A
:1009D00021F0A2E0B0E0CA2ADB2AEDEFFFEFEE2221
:1009E000FF228091630080FFDFCFE0FE04C081E042
:1009F00090E0C82AD92AAEEFBFEFEA22FB22C1FC61
:100A0000D7CFC0FED9CFE2E08E169104A9F692E0CE
:100A1000A92EB12CAE20BF20E1FED3CF0E949511AC
:100A2000FC0157CFE0FEC8CF0E943011FC0132E03C
:100A3000A32EB12CAE20BF204CCF7FEF87167FEFC7
:100A4000970611F182E090E0E82AF92A0E949511B8
:100A5000FC0162E0A62EB12CAE20BF203ACF61E0AF
:100A600070E0E62AF72A0E943011FC017FEF87161A
:100A70007FEF9706E1F651E0852E912C42E0A42EFF
:100A8000B12CAE20BF2025CF72E0872E912CDACF7B
:100A90000895089508950895FC01EE0FFF1FEE0FCD
:100AA000FF1FED51FB4F11821082138212820895B5
:100AB0000F931F93CF93DF938C01EB01DC01AA0FFF
:100AC000BB1FAA0FBB1FAD51BB4F6E5F7F4F12966E
:100AD0002D913C9113974D915C911197F901EE0F77
:100AE000FF1FEE0FFF1FEE0FFF1FE60FF71F8681A0
:100AF0009781841795076CF52F5F3F4F13963C93B2
:100B00002E931297888199812817390724F013961C
:100B10001C921E92129711961C921E9212962D9163
:100B20003C911397F901EE0FFF1FEE0FFF1FEE0F21
:100B3000FF1FE60FF71F608171814281538124817D
:100B40003581C8010E94D811DF91CF911F910F917B
:100B500008954F5F5F4F4D935C93E4CF60E070E08A
:100B600040E050E020E030E00E94D8110895FB0101
:100B70006081718142815381248135810E94D81125
:100B800008950F931F93FC01EE0FFF1FDF01A55B7C
:100B9000BC4F1D921C92ED59FC4F21E030E0318397
:100BA0002083FB01608171814281538124813581E1
:100BB0000E94D8111F910F910895EF92FF920F9309
:100BC0001F93CF93DF939C01FB01880F991F8C012A
:100BD000055B1C4FEC01CD59DC4F60817181428176
:100BE0005381E480F580A681B7810084F185E02DF2
:100BF000888199818130910509F1892BC1F4319760
:100C0000D8018D919C9111978E179F070CF043C0CE
:100C1000C90160E070E040E050E020E030E00E9478
:100C2000D811F80180819181019691838083DF91B1
:100C3000CF911F910F91FF90EF9008951197F801B8
:100C4000808191818A179B07A4F0198218821182F2
:100C50001082C90160E070E040E050E020E030E048
:100C60000E94D811DF91CF911F910F91FF90EF90CB
:100C70000895C90197010E94D811D8018D919C91C6
:100C8000119701968D939C93DF91CF911F910F91B6
:100C9000FF90EF90089581E090E0998388831D9202
:100CA0001C92C90197010E94D811DF91CF911F9129
:100CB0000F91FF90EF9008952F923F924F925F9285
:100CC0006F927F928F929F92AF92BF92CF92DF925C
:100CD000EF92FF920F931F93DF93CF93CDB7DEB7C1
:100CE0006E970FB6F894DEBF0FBECDBF9E8F8D8F6F
:100CF000FB01208131813C8F2B8F828193819A8FE0
:100D0000898FA481B581B88FAF8B268137813E8BC7
:100D10002D8B808591859C8B8B8BA285B385BA8B1F
:100D2000A98B24853585388B2F878D8D9E8D880FD7
:100D3000991FDC01AD5CBC4FBE87AD87FC01E55857
:100D4000FC4FFC87EB872D8D3E8D820F931F880F04
:100D5000991F880F991FDC01AE5EBD4FBA87A98726
:100D6000FC01EA5EFD4FF887EF839C01265E3D4F54
:100D70003E832D838091EA02813009F409C1AB8D55
:100D8000BC8DBD01882777FD8095982F0E944C1659
:100D90003B014C01E98DFA8DBF01882777FD8095D5
:100DA000982F0E944C161B012C012F89388DB901F8
:100DB000882777FD8095982F0E944C1669837A8347
:100DC0008B839C83AD85BE85CD90DC90EF85F889C3
:100DD000BF01882777FD8095982F0E944C167B01D4
:100DE0008C01B601882777FD8095982F0E944C16BC
:100DF0005B016C012D893E898B8D9C8D281B390BE5
:100E0000B901882777FD8095982F0E944C16A8017C
:100E100097010E94A0159B01AC01C601B5010E947B
:100E2000A614A40193010E947914A985BA856D9333
:100E30007D938D939C931397EB89FC89298D3A8D33
:100E4000E21BF30BBF01882777FD8095982F0E9446
:100E50004C16A80197010E94A015A60195010E94B9
:100E6000A614A20191010E947914AF81B8856D93F7
:100E70007D938D939C931397E989FA892F89388DF7
:100E8000E21BF30BBF01882777FD8095982F0E9406
:100E90004C16A80197010E94A015A60195010E9479
:100EA000A61429813A814B815C810E9479147B01CF
:100EB0008C01AD81BE816D937D938D939C9313972F
:100EC000E985FA8560817181828193810E94AA16E9
:100ED0003B014C01AF81B8856D917D918D919C91C5
:100EE0000E94AA165B016C01C801B7010E94AA16F4
:100EF0008B019C018D8D9E8DB301A50198010E94EF
:100F0000D811EB85FC8580819181019759F1ED85A0
:100F1000FE858081918101979183808397FD19C01F
:100F20006E960FB6F894DEBF0FBECDBFCF91DF91A6
:100F30001F910F91FF90EF90DF90CF90BF90AF90F7
:100F40009F908F907F906F905F904F903F902F90E9
:100F500008951182108281E090E0AB85BC858D936D
:100F60009C93DECFAD85BE858D919C9111970196A6
:100F70008D939C93EF85F889E817F9078CF6AB857C
:100F8000BC851D921C92AD85BE85ED93FC93C8CFA8
:100F9000EB8DFC8DBF01882777FD8095982F0E94EF
:100FA0004C163B014C01A985BA856D937D938D93B9
:100FB0009C931397E98DFA8DBF01882777FD809563
:100FC000982F0E944C161B012C01AF81B8856D93A0
:100FD0007D938D939C931397EF89F88DBF0188279C
:100FE00077FD8095982F0E944C1669837A838B83B6
:100FF0009C83AD81BE816D937D938D939C9313975C
:10100000ED85FE851182108281E090E0AB85BC8584
:101010008D939C93CC24DD24D9CE21E02093EA0249
:101020000E945C061092EA0208950F931F93DF93CB
:10103000CF93CDB7DEB72E970FB6F894DEBF0FBEB5
:10104000CDBF9C01FB018C01000F111F0D561C4FE1
:10105000D8018D919C91429714F5808191819A835A
:101060008983828193819C838B83848195819E83F4
:101070008D8318861F821A8619861C861B8682E13C
:1010800090E09E878D87C901BE016F5F7F4F0E94F0
:101090005C06F801808191810196918380832E9670
:1010A0000FB6F894DEBF0FBECDBFCF91DF911F9179
:1010B0000F910895DF93CF93CDB7DEB72E970FB67C
:1010C000F894DEBF0FBECDBFDB01FC01EE0FFF1FAA
:1010D000ED56FC4F118210822D913C9111973A836D
:1010E000298312962D913C9113973C832B83149660
:1010F0002D913C9115973E832D8318861F821A8669
:1011000019861C861B8622E130E03E872D8721E070
:101110002093EA02BE016F5F7F4F0E945C0610922F
:10112000EA022E960FB6F894DEBF0FBECDBFCF9168
:10113000DF910895CF92DF92EF92FF920F931F936A
:101140007C016B018C01000F111FF801E55BFC4F66
:1011500011821082F801ED59FC4F81E090E09183FB
:101160008083F801E555FC4F11821082C7010E946F
:10117000C105C701B6010E940D080E0D1F1D000F0D
:10118000111F0E551D4FC701B8010E94F2111F918A
:101190000F91FF90EF90DF90CF900895AF92BF92A4
:1011A000CF92DF92EF92FF920F931F93DF93CF9333
:1011B000CDB7DEB72A970FB6F894DEBF0FBECDBF0E
:1011C0006C015B01880F991F8C010C0D1D1D000F18
:1011D000111F0E551D4F5BEAE52E53E0F52EE80E6C
:1011E000F91ED7018D919C918A309105B4F5019635
:1011F000D7018D939C93F8012281338144815581DD
:10120000D5011E966D917C911F975096ED91FC91A2
:101210005197D8018D919C919A8389833C832B832C
:101220005E834D8378876F83FA87E987C601BE01A5
:101230006F5F7F4F0E94DD052A960FB6F894DEBFE0
:101240000FBECDBFCF91DF911F910F91FF90EF9017
:10125000DF90CF90BF90AF900895C601B5010E9476
:101260005C06C601B8010E94F211F70111821082DA
:10127000C2CFEF92FF920F931F93DF93CF93CDB71F
:10128000DEB762970FB6F894DEBF0FBECDBFF82E63
:10129000E92EDB011E968D919C911F97813091055F
:1012A00009F4A6C0892B31F58F2D9E2DFC01EE0F80
:1012B000FF1FEE0FFF1FEE0FFF1F880F991FE80F94
:1012C000F91FE559FB4F80E290E0918380838F2DD9
:1012D0009E2DFC01EE0FFF1FEE0FFF1FEE0FFF1FF5
:1012E000880F991FE80FF91FE559FB4F82E090E046
:1012F000938382838F2D9E2DFC01EE0FFF1FEE0F37
:10130000FF1FEE0FFF1F880F991FE80FF91FE55908
:10131000FB4F158214828F2D9E2DFC01EE0FFF1FB7
:10132000EE0FFF1FEE0FFF1F880F991FE80FF91F29
:10133000E559FB4F50968C91509751969C9151973F
:101340009C01220F331F220F331F220F331F880FE0
:10135000991F280F391F318720878E010F5F1F4F7C
:10136000C801BD0147E050E00E94EB128F2D9E2D79
:10137000FC01EE0FFF1FEE0FFF1FEE0FFF1F880F88
:10138000991FE80FF91FE559FB4F80819181988BD8
:101390008F878F2D9E2DFC01EE0FFF1FEE0FFF1F7D
:1013A000EE0FFF1F880F991FE80FF91FE559FB4F3C
:1013B000828193819A8B898B8F2D9E2DB8010E94FB
:1013C0009A088F2D9E2D60E070E040E050E020E014
:1013D00030E00E94D81162960FB6F894DEBF0FBEBF
:1013E000CDBFCF91DF911F910F91FF90EF900895A6
:1013F0008F2D9E2DFC01EE0FFF1FEE0FFF1FEE0F36
:10140000FF1F880F991FE80FF91FE559FB4F118245
:1014100010828F2D9E2DFC01EE0FFF1FEE0FFF1F80
:10142000EE0FFF1F880F991FE80FF91FE559FB4FBB
:1014300080E290E0938382835DCFEF92FF920F93DF
:101440001F93DF93CF93CDB7DEB762970FB6F894B3
:10145000DEBF0FBECDBFF82EE92E8B01FB018081D0
:1014600091819A838983828193819C838B838481F8
:1014700095819E838D838681978198878F838085D0
:1014800091859A878987828593859C878B878289B6
:1014900093899E878D8784899589988B8F87868984
:1014A00097899A8B898B8F2D9E2DBE016F5F7F4F01
:1014B0000E943909A3ECB3E08F2D9E2D880F991F50
:1014C000FC01EE0FFF1FEE0FFF1FEE0FFF1FE81BCB
:1014D000F90BEA0FFB1F118210828F2D9E2D880FB2
:1014E000991FFC01EE0FFF1FEE0FFF1FEE0FFF1FF6
:1014F000E81BF90BEA0FFB1F8D859E85958384837E
:101500008F2D9E2D880F991FFC01EE0FFF1FEE0FF0
:10151000FF1FEE0FFF1FE81BF90BEA0FFB1F81E017
:1015200090E0938382838F2D9E2D880F991FFC015D
:10153000EE0FFF1FEE0FFF1FEE0FFF1FE81BF90B53
:10154000EA0FFB1F178216828F2D9E2D880F991F81
:10155000FC01EE0FFF1FEE0FFF1FEE0FFF1FE81B3A
:10156000F90BEA0FFB1F138702878F2D9E2D880F23
:10157000991F9C01220F331F220F331F220F331F8D
:10158000281B390BA20FB31F0A5F1F4F1D961C9318
:101590000E931C9762960FB6F894DEBF0FBECDBFB8
:1015A000CF91DF911F910F91FF90EF900895EF92EF
:1015B000FF920F931F93DF93CF93CDB7DEB7629760
:1015C0000FB6F894DEBF0FBECDBFF82EE92EDB01BB
:1015D0001E966D917C911F97FC01EE0FFF1FEE0F81
:1015E000FF1FEE0FFF1F880F991FE80FF91FE55926
:1015F000FB4F408551858F2D9E2DFC01EE0FFF1F67
:10160000EE0FFF1FEE0FFF1F880F991FE80FF91F46
:10161000E559FB4F86819781019709F4AAC08F2D68
:101620009E2DFC01EE0FFF1FEE0FFF1FEE0FFF1FA1
:10163000880F991FE80FF91FE559FB4F2481358169
:10164000241735070CF054C08F2D9E2DFC01EE0F92
:10165000FF1FEE0FFF1FEE0FFF1F880F991FE80FF0
:10166000F91FE559FB4F2F5F3F4F358324838E01D0
:101670000F5F1F4FC801BD0147E050E00E94EB1211
:101680008F2D9E2DFC01EE0FFF1FEE0FFF1FEE0FA3
:10169000FF1F880F991FE80FF91FE559FB4F808145
:1016A0009181988B8F878F2D9E2DFC01EE0FFF1F50
:1016B000EE0FFF1FEE0FFF1F880F991FE80FF91F96
:1016C000E559FB4F828193819A8B898B8F2D9E2DBB
:1016D000B8010E94CE0862960FB6F894DEBF0FBE26
:1016E000CDBFCF91DF911F910F91FF90EF900895A3
:1016F0008F2D9E2DFC01EE0FFF1FEE0FFF1FEE0F33
:10170000FF1F880F991FE80FF91FE559FB4F15823E
:1017100014826130710509F486C0672B09F0A7CFE8
:101720008F2D9E2DFC01EE0FFF1FEE0FFF1FEE0F02
:10173000FF1F880F991FE80FF91FE559FB4F208104
:101740003181233031050CF497C08F2D9E2DFC0183
:10175000EE0FFF1FEE0FFF1FEE0FFF1F880F991FE9
:10176000E80FF91FE559FB4F2250304031832083A9
:101770007ECF8F2D9E2DFC01EE0FFF1FEE0FFF1F62
:10178000EE0FFF1F880F991FE80FF91FE559FB4F58
:10179000848195810A970CF16130710509F4E6C0E6
:1017A000672B51F48F2D9E2D60E070E040E050E0FB
:1017B00020E030E00E94D8118F2D9E2DFC01EE0F0D
:1017C000FF1FEE0FFF1FEE0FFF1F880F991FE80F7F
:1017D000F91FE559FB4F158214828F2D9E2DDC01D8
:1017E000AA0FBB1FAA0FBB1FAA0FBB1F880F991FF1
:1017F000A80FB91FA559BB4F8F2D9E2DFC01EE0FD1
:10180000FF1FEE0FFF1FEE0FFF1F880F991FE80F3E
:10181000F91FE559FB4F84819581019615969C939C
:101820008E93149758CF8F2D9E2DFC01EE0FFF1F26
:10183000EE0FFF1FEE0FFF1F880F991FE80FF91F14
:10184000E559FB4F22813381233031050CF452C01E
:101850008F2D9E2DFC01EE0FFF1FEE0FFF1FEE0FD1
:10186000FF1F880F991FE80FF91FE559FB4F225002
:10187000304033832283FBCE8F2D9E2DFC01EE0F53
:10188000FF1FEE0FFF1FEE0FFF1F880F991FE80FBE
:10189000F91FE559FB4F82819381803291050CF04D
:1018A000E6CE02962F2D3E2DF901EE0FFF1FEE0F13
:1018B000FF1FEE0FFF1F220F331FE20FF31FE5592B
:1018C000FB4F93838283809709F0D1CE8F2D9E2D7D
:1018D000FC01EE0FFF1FEE0FFF1FEE0FFF1F880F23
:1018E000991FE80FF91FE559FB4F81E090E09783BE
:1018F0008683BDCE8F2D9E2DFC01EE0FFF1FEE0FB8
:10190000FF1FEE0FFF1F880F991FE80FF91FE55902
:10191000FB4F80819181803291050CF0A8CE029618
:101920002F2D3E2DF901EE0FFF1FEE0FFF1FEE0FC3
:10193000FF1F220F331FE20FF31FE559FB4F918367
:101940008083809709F093CE8F2D9E2DFC01EE0FA2
:10195000FF1FEE0FFF1FEE0FFF1F880F991FE80FED
:10196000F91FE559FB4F7783668381CE8F2D9E2D1E
:10197000BD010E945C0620CFEF92FF920F931F9350
:10198000DF93CF93CDB7DEB7A6970FB6F894DEBF3F
:101990000FBECDBFF82EE92E8B01880F991FFC01D9
:1019A000EE0FFF1FEE0FFF1FEE0FFF1FE81BF90BDF
:1019B000ED53FC4F208531852A3031050CF44BC0A6
:1019C0008F2D9E2D880F991FFC01EE0FFF1FEE0F2C
:1019D000FF1FEE0FFF1FE81BF90BED53FC4F268195
:1019E00037818F2D9E2D880F991FFC01EE0FFF1F51
:1019F000EE0FFF1FEE0FFF1FE81BF90BED53FC4F1F
:101A000084819581281739070CF095C08F2D9E2D64
:101A1000880F991FFC01EE0FFF1FEE0FFF1FEE0F47
:101A2000FF1FE81BF90BED53FC4F2F5F3F4F378330
:101A300026838F2D9E2D880F991FFC01EE0FFF1F0F
:101A4000EE0FFF1FEE0FFF1FE81BF90BED53FC4FCE
:101A50001186108613C08F2D9E2D880F991FFC01B3
:101A6000EE0FFF1FEE0FFF1FEE0FFF1FE81BF90B1E
:101A7000ED53FC4F2F5F3F4F318720878F2D9E2DD9
:101A8000880F991FFC01EE0FFF1FEE0FFF1FEE0FD7
:101A9000FF1FE81BF90BED53FC4F0284F385E02D8B
:101AA000808191819E8B8D8B82819381988F8F8B8A
:101AB000848195819A8F898F8F2D9E2D880F991FF4
:101AC000FC01EE0FFF1FEE0FFF1FEE0FFF1FE81BC5
:101AD000F90BED53FC4F0484F585E02D8081918155
:101AE0009C8F8B8F828193819E8F8D8F8481958136
:101AF00098A38F8FF801828993899AA389A38489F7
:101B000095899CA38BA3868997899EA38DA38F2DEE
:101B10009E2DBE016B5E7F4F0E94D70AA6960FB620
:101B2000F894DEBF0FBECDBFCF91DF911F910F9113
:101B3000FF90EF9008958F2D9E2D880F991FFC0127
:101B4000EE0FFF1FEE0FFF1FEE0FFF1FE81BF90B3D
:101B5000ED53FC4F428153814130510509F46AC075
:101B6000452B09F0F2C08F2D9E2D880F991FFC0187
:101B7000EE0FFF1FEE0FFF1FEE0FFF1FE81BF90B0D
:101B8000ED53FC4F20813181215030408F2D9E2D0F
:101B9000880F991FFC01EE0FFF1FEE0FFF1FEE0FC6
:101BA000FF1FE81BF90BED53FC4F31832083232BE0
:101BB00009F0F7C08F2D9E2D880F991FFC01EE0FA5
:101BC000FF1FEE0FFF1FEE0FFF1FE81BF90BED537A
:101BD000FC4F0A5F1F4F13870287065010408F2D5E
:101BE0009E2D880F991FFC01EE0FFF1FEE0FFF1FA8
:101BF000EE0FFF1FE81BF90BED53FC4F1587048711
:101C0000F8018681978198878F83808591859A874F
:101C10008987828593859C878B87808191819E8728
:101C20008D8782819381988B8F87848195819A8B10
:101C3000898B8BC08F2D9E2D880F991FFC01EE0F75
:101C4000FF1FEE0FFF1FEE0FFF1FE81BF90BED53F9
:101C5000FC4F208131812F5F3F4F8F2D9E2D880FAC
:101C6000991FFC01EE0FFF1FEE0FFF1FEE0FFF1F6E
:101C7000E81BF90BED53FC4F3183208321303105F4
:101C800009F4E5C08F2D9E2D880F991FFC01EE0FE2
:101C9000FF1FEE0FFF1FEE0FFF1FE81BF90BED53A9
:101CA000FC4F138212828F2D9E2D880F991FFC01ED
:101CB000EE0FFF1FEE0FFF1FEE0FFF1FE81BF90BCC
:101CC000ED53FC4F518340838F2D9E2D880F991F1C
:101CD000FC01EE0FFF1FEE0FFF1FEE0FFF1FE81BB3
:101CE000F90BED53FC4F045F1F4F138702878F2DB5
:101CF0009E2D880F991FFC01EE0FFF1FEE0FFF1F97
:101D0000EE0FFF1FE81BF90BED53FC4F0650104080
:101D10001587048706501040F801848595859887BB
:101D20008F83868597859A878987808991899C8703
:101D30008B87868197819E878D8780859185988BFB
:101D40008F87828593859A8B898B8F2D9E2DBE01DF
:101D50006F5F7F4F0E94F21189819A8198878F83EC
:101D60008B819C819A8789878D819E819C878B87B7
:101D70008F2D9E2DBE01695F7F4F0E940D088F2D14
:101D80009E2D880F991FFC01EE0FFF1FEE0FFF1F06
:101D9000EE0FFF1FE81BF90BED53FC4F1782168265
:101DA00048CE8F2D9E2D880F991FFC01EE0FFF1F2F
:101DB000EE0FFF1FEE0FFF1FE81BF90BED53FC4F5B
:101DC000118210828F2D9E2D880F991FFC01EE0F1E
:101DD000FF1FEE0FFF1FEE0FFF1FE81BF90BED5368
:101DE000FC4F81E090E0938382838F2D9E2D880F9E
:101DF000991FFC01EE0FFF1FEE0FFF1FEE0FFF1FDD
:101E0000E81BF90BED53FC4F138702878F2D9E2D96
:101E1000880F991FFC01EE0FFF1FEE0FFF1FEE0F43
:101E2000FF1FE81BF90BED53FC4F0A5F1F4F15878F
:101E3000048706501040F8018081918198878F8334
:101E4000828193819A8789878481958170CF8F2D34
:101E50009E2D880F991FFC01EE0FFF1FEE0FFF1F35
:101E6000EE0FFF1FE81BF90BED53FC4F0A5F1F4FEE
:101E7000138702878F2D9E2D880F991FFC01EE0F6F
:101E8000FF1FEE0FFF1FEE0FFF1FE81BF90BED53B7
:101E9000FC4F0A5F1F4F158704870C501040F80154
:101EA0008681978198878F83808591859A87898796
:101EB000828593859C878B87848595859E878D8772
:101EC00086859785988B8F87808991899A8B898B56
:101ED0003CCFDC012D913C911197F90184912F5F4A
:101EE0003F4F2D933C930895DC018D919C91119768
:101EF000FC012591349102968D939C93C90108951C
:101F0000CF93DF93EC011416150664F4DB0180E037
:101F100090E0FE01E80FF91FE491ED93019684171C
:101F20009507BCF3DF91CF9108952F923F924F9286
:101F30005F926F927F928F929F92AF92BF92CF9259
:101F4000DF92EF92FF921F93DF93CF9300D000D0E8
:101F5000CDB7DEB783EF98E09093F40E8093F30E45
:101F60004091040150910501FA0184913196F0935A
:101F70000501E09304018F3FC9F060E070E0CB0100
:101F80000F900F900F900F90CF91DF911F91FF90C6
:101F9000EF90DF90CF90BF90AF909F908F907F9009
:101FA0006F905F904F903F902F9008958091000127
:101FB00090910101209102013091030120930001D1
:101FC000309301019093030180930201C901BC0188
:101FD000859194919C01220F331F220F331F220FF2
:101FE000331F880F991F280F391FFB01318320836E
:101FF000DB011496B383A2834D5F5F4F11E09CE534
:10200000C92E96E0D92E8DE0A82E88E0B82EFDEDE1
:102010008F2EF5E09F2EE1EC6E2EE5E07E2E35E171
:10202000432E38E0532E2AE5222E28E0322E9BE460
:10203000E92E95E0F92E23C01396FC92EE921297AA
:1020400018961C9318978091F30E9091F40E20E04F
:1020500030E0820F931F9093F40E8093F30E409123
:10206000040150910501420F531FFA0184918F3FE3
:1020700009F4B4C01B96FD013297B183A083FA0125
:1020800084914F5F5F4F8C93FA012491CA010196AE
:102090009A838983909305018093040111962C9370
:1020A00011978091F30E9091F40E9C838B83179679
:1020B0009C938E931697222309F4BECF223039F1D8
:1020C000233009F44BC0243009F468C0253009F4EA
:1020D00073C0263009F450C0273009F48AC0283074
:1020E00009F499C0293009F0B2CF87EB95E0139637
:1020F0009C938E931297E8E4F5E01596FC93EE938B
:10210000149718961C93189746E050E00DC013964C
:102110005C924E92129715963C922E9214971896B6
:102120001C93189746E050E020E030E0E981FA8106
:102130008491EB81FC818193FC83EB8389819A817B
:1021400001969A8389832F5F3F4F2417350774F3D5
:102150009A018091F30E9091F40E7BCF13969C928E
:102160008E92129715967C926E92149718961C92E6
:1021700018974AE050E0D8CFE7EDFAE01396FC93C9
:10218000EE93129789E399E015969C938E9314979A
:1021900018961C92189742E150E0C6CF18961C93EF
:1021A00018971396DC92CE9212971596BC92AE9227
:1021B00014974EE050E0B8CFEEECF8E01396FC93A5
:1021C000EE9312978AE998E015969C938E93149754
:1021D00018961C92189742E150E0A6CF1A961C92CE
:1021E0001E9219974F5F5F4F509305014093040172
:1021F000C6CEECEBFCE01396FC93EE9312978DE1C8
:102200009AE015969C938E93149718961C921897A3
:1022100048E150E089CFE8E5F5E01396FC93EE93B2
:1022200012978CE495E015969C938E931497898170
:102230009A81FC014591549190930501809304018A
:10224000440F551F440F551F440F551F4E5F5F4FDE
:1022500018961C921897141615060CF465CF78CFB3
:10226000CF93DF93A091F30CB091F40CA230B105A1
:1022700078F4119781F1C0910401D09105010E9479
:10228000950FD0930501C0930401DF91CF9108957C
:10229000FD013197F093F40CE093F30CAA0FBB1FF0
:1022A000AF50B34FEE0FFF1FEB50F34F2D913C910A
:1022B00080819181280F391F80910401909105013F
:1022C000821B930B90930501809304010E94950F4C
:1022D000DF91CF9108958091F50C9091F60CC0910B
:1022E0000401D0910501C81BD90BD0930501C093FF
:1022F00004011092F40C1092F30CC1CFE091F30C96
:10230000F091F40CEE0FFF1FED50F34F208131815F
:102310008091040190910501821B930B909305011C
:10232000809304010E94950F0895CF93DF93C0918D
:102330000401D09105010E94950FAC010097D9F0DE
:102340002091F30C3091F40CF901EE0FFF1FEB50CC
:10235000F34F80910401909105018C1B9D0B91839B
:1023600080832F5F3F4F3093F40C2093F30CCA010E
:10237000DF91CF9108950E947E11AC01F8CF1092A9
:10238000F40C1092F30C8EEF91E0E5EFFCE0DF012E
:102390009C011D9221503040E1F708959C0197FD6A
:1023A00002C0C9010895309521953F4FC901089594
:1023B0008630910524F08630910589F00197FC0163
:1023C000EE0FFF1FE80FF91FEE0FFF1FE551FD4F46
:1023D0007183608355834483338322830895E2E4C9
:1023E000F0E0F4CFDB018630910524F086309105D2
:1023F000E1F00197FC01EE0FFF1FE80FF91FEE0F50
:10240000FF1FE551FD4F8081918111969C938E9322
:102410008481958113969C938E93129782819381E8
:1024200015969C938E9314970895E2E4F0E0E9CF1B
:1024300043E250E0FA01EE0FFF1FE551FD4F01901E
:10244000F081E02DE295F295F07FFE27E07FFE27F8
:102450002CE030E008C08BB31BBADB9A8BB31BBAFD
:102460002115310591F021503040CF01022E02C0DC
:10247000959587950A94E2F780FFEDCFD89ADB9A7D
:102480008BB31BBA2115310571F74231510541F06B
:102490004150504057FFCECFD99A8BB31BBA089505
:1024A0008BB31BBA80E090E0DB9A2BB31BBA01968A
:1024B00088349105C9F741E150E0BCCF1092EC029D
:1024C0001092EB021092F0021092EF021092EE02C4
:1024D0001092ED021092F2021092F1021092F602A6
:1024E0001092F5021092F4021092F3020E94181258
:1024F00084E690E09093EC028093EB021092F0025D
:102500001092EF021092EE021092ED029093F202FE
:102510008093F1021092F6021092F5021092F402EA
:102520001092F3029091060120E030E040E186B77E
:102530008923E9F346BF2F5F3F4F22333105B9F7B7
:102540000E9418121092EC021092EB021092F0020C
:102550001092EF021092EE021092ED021092F2022F
:102560001092F1021092F6021092F5021092F4020B
:102570001092F3029091060120E030E040E186B72E
:102580008923E9F346BF2F5F3F4F22333105B9F767
:102590000E94181208959091060186B78923E9F3E5
:1025A00080E186BF0895CF93DF93EC0114161506E2
:1025B0007CF420E030E0FE01E20FF31FDB01A20F0C
:1025C000B31F8C9180832F5F3F4F241735079CF3F7
:1025D000DF91CF910895FC011416150664F4DB0118
:1025E00020E030E08D919D91819391932F5F3F4F3B
:1025F00024173507BCF30895A0E0B0E0E2E0F3E172
:102600000C949A18DC012B01FA019C91923008F489
:1026100039C1EB018881823008F433C1943069F408
:10262000843009F02FC111969C91119789819817D8
:1026300009F428C1A7E0B1E025C1843009F421C123
:102640008230A9F4923009F01DC19A01AD0188E0F1
:10265000EA010990AE01E90109929E018150C1F79A
:10266000E201898111969C918923818308C192306E
:1026700009F407C112962D903C901397EB018A81C3
:102680009B811496AD90BD90CD90DC901797EC8017
:10269000FD800E811F819101281B390BB90137FF85
:1026A00004C066277727621B730B603271050CF03C
:1026B00061C0121613066CF537014801062E04C0DE
:1026C00096948794779467940A94D2F721E030E047
:1026D00040E050E004C0220F331F441F551F6A958D
:1026E000D2F721503040404050402E213F2140231E
:1026F0005123211531054105510521F021E030E03C
:1027000040E050E079018A01E628F72808291929D4
:102710003CC0232BD1F1260E371E35014601062E73
:1027200004C096948794779467940A94D2F721E032
:1027300030E040E050E004C0220F331F441F551F1B
:102740006A95D2F721503040404050402A213B2129
:102750004C215D21211531054105510521F021E074
:1027600030E040E050E059016A01A628B728C828A7
:10277000D9280BC0821593052CF01C01AA24BB2478
:10278000650103C0EE24FF24870111969C91D201BC
:1027900011968C91981709F445C0992339F0A80136
:1027A00097012A193B094C095D0906C0A60195014C
:1027B0002E193F09400B510B57FD08C0118233827F
:1027C000228224833583468357831DC081E0818321
:1027D0003382228288279927DC01821B930BA40B6A
:1027E000B50B84839583A683B7830DC0220F331F57
:1027F000441F551F248335834683578382819381E9
:102800000197938382832481358146815781DA0140
:10281000C9010197A109B1098F5F9F4FAF4FBF4316
:1028200028F30BC0918333822282EA0CFB1C0C1D1F
:102830001D1DE482F5820683178383E08083248153
:1028400035814681578157FF1AC0C901AA2797FDD4
:10285000A095BA2F81709070A070B0705695479572
:1028600037952795822B932BA42BB52B84839583A7
:10287000A683B78382819381019693838283DF014C
:1028800001C0D201CD01CDB7DEB7E2E10C94B6189C
:10289000A0E2B0E0EEE4F4E10C94A61869837A8338
:1028A0008B839C832D833E834F835887E9E0EE2EF4
:1028B000F12CEC0EFD1ECE010196B7010E942218EC
:1028C0008E010F5E1F4FCE010596B8010E9422189F
:1028D0008A8991E089278A8BC701B801AE01475EDA
:1028E0005F4F0E94FC120E944D17A096E6E00C94E8
:1028F000C218A0E2B0E0EFE7F4E10C94A6186983F7
:102900007A838B839C832D833E834F835887F9E0A2
:10291000EF2EF12CEC0EFD1ECE010196B7010E94A8
:1029200022188E010F5E1F4FCE010596B8010E943E
:102930002218C701B801AE01475E5F4F0E94FC122A
:102940000E944D17A096E6E00C94C218A0E2B0E0F9
:10295000ECEAF4E10C949A1869837A838B839C8364
:102960002D833E834F835887CE010196BE01675F5A
:102970007F4F0E942218CE010596BE016F5E7F4FE9
:102980000E9422189985923088F089898230C8F097
:10299000943019F4823051F404C0843029F4923018
:1029A00081F487E091E0C6C0923049F420E09A8536
:1029B0008A89981321E02A87CE010996BBC082300C
:1029C00049F420E09A858A89981321E02A8BCE0168
:1029D0004196B0C02D843E844F8458886D887E888F
:1029E0008F88988CEE24FF248701AA24BB246501DC
:1029F00040E050E060E070E0E0E0F0E0C1018170B4
:102A00009070892BE9F0E60CF71C081D191D9A013E
:102A1000AB012A0D3B1D4C1D5D1D80E090E0A0E048
:102A2000B0E0E614F7040805190520F481E090E011
:102A3000A0E0B0E0BA01A901480F591F6A1F7B1F2F
:102A4000AA0CBB1CCC1CDD1C97FE08C081E090E0EA
:102A5000A0E0B0E0A82AB92ACA2ADB2A3196E032DF
:102A6000F10549F0660C771C881C991C5694479414
:102A700037942794C3CFFA85EA892B893C898B85C3
:102A80009C85280F391F2E5F3F4F17C0CA018170E8
:102A90009070892B61F016950795F794E79480E084
:102AA00090E0A0E0B0E8E82AF92A0A2B1B2B7695E3
:102AB0006795579547952F5F3F4F77FDE7CF0CC040
:102AC000440F551F661F771F17FD4160EE0CFF1C5A
:102AD000001F111F21503040403090E0590790E016
:102AE000690790E4790760F32B8F3C8FDB01CA0103
:102AF0008F779070A070B07080349105A105B105FA
:102B000061F447FD0AC0E114F1040105110529F043
:102B1000405C5F4F6F4F7F4F40781A8EFE1711F069
:102B200081E08A8F4D8F5E8F6F8F78A383E0898FCE
:102B3000CE0149960E944D17A096E2E10C94B6187A
:102B4000A8E1B0E0E6EAF5E10C94A21869837A8383
:102B50008B839C832D833E834F835887B9E0EB2E74
:102B6000F12CEC0EFD1ECE010196B7010E94221839
:102B70008E010F5E1F4FCE010596B8010E942218EC
:102B80002985223008F47EC03989323010F4B8012A
:102B90007CC08A859A8989278A87243011F022305F
:102BA00031F4231709F06EC067E071E06EC0343075
:102BB00039F41D861E861F86188A1C861B8604C053
:102BC000323021F484E08987B7015FC02B853C85D2
:102BD0008B899C89281B390B3C872B87ED84FE84CD
:102BE0000F851889AD88BE88CF88D88CEA14FB047D
:102BF0000C051D0540F4EE0CFF1C001F111F215099
:102C000030403C872B8720E030E040E050E080E01F
:102C100090E0A0E0B0E460E070E0EA14FB040C0592
:102C20001D0540F0282B392B4A2B5B2BEA18FB089B
:102C30000C091D09B695A79597958795EE0CFF1C75
:102C4000001F111F6F5F7F4F6F31710531F7DA0180
:102C5000C9018F779070A070B07080349105A10584
:102C6000B10561F427FD0AC0E114F1040105110565
:102C700029F0205C3F4F4F4F5F4F20782D873E87D4
:102C80004F87588BBE01675F7F4FCB010E944D1766
:102C90006896EAE00C94BE18A8E0B0E0E2E5F6E140
:102CA0000C94A3189B01AC0183E08983DA01C9016C
:102CB0008827B7FD83959927AA27BB27B82E21150A
:102CC00031054105510519F482E089833AC0882312
:102CD000A9F0203080E0380780E0480780E85807F6
:102CE00029F460E070E080E09FEC30C0EE24FF2427
:102CF0008701E21AF30A040B150B02C079018A015D
:102D00008EE1C82ED12CDC82CB82ED82FE820F8335
:102D10001887C801B7010E94FE16019718161906F8
:102D200084F4082E04C0EE0CFF1C001F111F0A942F
:102D3000D2F7ED82FE820F831887C81AD90ADC8287
:102D4000CB82BA82CE0101960E944D172896E9E007
:102D50000C94BF18ACE0B0E0E0EBF6E10C94AA18DC
:102D600069837A838B839C83CE010196BE016B5F5E
:102D70007F4F0E9422188D81823061F1823050F1A4
:102D8000843021F48E81882351F12EC02F81388523
:102D900037FD20C06E812F3131051CF06623F9F01C
:102DA00023C08EE190E0821B930B29853A854B85E9
:102DB0005C8504C056954795379527958A95D2F737
:102DC0006623B1F050954095309521953F4F4F4F78
:102DD0005F4F0EC020E030E040E050E009C02FEF30
:102DE0003FEF4FEF5FE704C020E030E040E050E805
:102DF000B901CA012C96E2E00C94C618EF92FF923A
:102E00000F931F937B018C0180E0E81680E0F806A9
:102E100081E0080780E0180788F48FEFE816F104D6
:102E20000105110531F028F088E090E0A0E0B0E065
:102E300017C080E090E0A0E0B0E012C080E0E816AB
:102E400080E0F80680E0080781E0180728F088E1B4
:102E500090E0A0E0B0E004C080E190E0A0E0B0E04D
:102E600020E230E040E050E0281B390B4A0B5B0BBE
:102E700004C016950795F794E7948A95D2F7F70161
:102E8000E15FFE4F8081281B310941095109C901C9
:102E90001F910F91FF90EF900895DF92EF92FF92B4
:102EA0000F931F93FC01E480F58006811781D18088
:102EB0008081823048F480E090E0A0E1B0E0E82A30
:102EC000F92A0A2B1B2BA5C0843009F49FC082303D
:102ED00021F4EE24FF24870105C0E114F10401056B
:102EE000110519F4E0E0F0E096C0628173819FEF74
:102EF000623879070CF05BC022E83FEF261B370BE6
:102F00002A3131052CF020E030E040E050E02AC0CA
:102F1000B801A701022E04C076956795579547958D
:102F20000A94D2F781E090E0A0E0B0E004C0880FFE
:102F3000991FAA1FBB1F2A95D2F70197A109B109B2
:102F40008E219F21A023B1230097A105B10521F077
:102F500081E090E0A0E0B0E09A01AB01282B392B92
:102F60004A2B5B2BDA01C9018F779070A070B0708B
:102F700080349105A105B10539F427FF09C0205C13
:102F80003F4F4F4F5F4F04C0215C3F4F4F4F5F4F4C
:102F9000E0E0F0E02030A0E03A07A0E04A07A0E43B
:102FA0005A0710F0E1E0F0E079018A0127C06038AB
:102FB000710564F5FB01E158FF4FD801C7018F7718
:102FC0009070A070B07080349105A105B10539F4FE
:102FD000E7FE0DC080E490E0A0E0B0E004C08FE325
:102FE00090E0A0E0B0E0E80EF91E0A1F1B1F17FFDB
:102FF00005C016950795F794E794319687E01695E6
:103000000795F794E7948A95D1F705C0EE24FF243D
:103010008701EFEFF0E06E2F679566276795902F99
:103020009F77D794DD24D7948E2F8695492F462BF2
:10303000582F5D29B701CA011F910F91FF90EF90A2
:10304000DF900895FC01DB01408151812281622FD4
:103050006F7770E0221F2227221F9381892F880F0C
:10306000822B282F30E0991F9927991F11969C9346
:10307000119721153105A9F5411551056105710516
:1030800011F482E037C082E89FEF13969C938E93F1
:1030900012979A01AB0167E0220F331F441F551F9F
:1030A0006A95D1F783E08C930DC0220F331F441F24
:1030B000551F12968D919C911397019713969C938F
:1030C0008E931297203080E0380780E0480780E434
:1030D000580758F314962D933D934D935C9317978F
:1030E00008952F3F310579F44115510561057105AA
:1030F00019F484E08C93089564FF03C081E08C93FD
:1031000012C01C9210C02F57304013963C932E9340
:10311000129783E08C9387E0440F551F661F771F3B
:103120008A95D1F7706414964D935D936D937C935B
:10313000179708952F923F924F925F926F927F92CE
:103140008F929F92AF92BF92CF92DF92EF92FF92B7
:103150000F931F93CF93DF93CDB7DEB7CA1BDB0B63
:103160000FB6F894DEBF0FBECDBF09942A88398808
:1031700048885F846E847D848C849B84AA84B9840F
:10318000C884DF80EE80FD800C811B81AA81B9811B
:10319000CE0FD11D0FB6F894DEBF0FBECDBFED012F
:0631A0000895F894FFCF32
:1031A600130503078C00100000000000000000005B
:1031B60001020203030303040404040404040405D3
:1031C60005050505050505050505050505050506A8
:1031D6000606060606060606060606060606060689
:1031E6000606060606060606060606060606060778
:1031F6000707070707070707070707070707070759
:103206000707070707070707070707070707070748
:103216000707070707070707070707070707070738
:103226000707070707070707070707070707070827
:103236000808080808080808080808080808080808
:1032460008080808080808080808080808080808F8
:1032560008080808080808080808080808080808E8
:1032660008080808080808080808080808080808D8
:1032760008080808080808080808080808080808C8
:1032860008080808080808080808080808080808B8
:1032960008080808080808080808080808080808A8
:1032A60008080808080808080808080808080800A0
:00000001FF
